:020000040800F2
:100000000050002095070008310700083907000854
:1000100041070008490700085107000800000000D8
:100020000000000000000000000000005907000868
:100030006507000800000000710700087D07000840
:10004000DD070008DD070008DD070008DD07000800
:10005000DD070008DD070008DD070008DD070008F0
:10006000DD070008DD070008DD070008DD070008E0
:10007000DD070008DD070008DD070008DD070008D0
:10008000DD070008DD070008DD070008DD070008C0
:10009000DD070008DD070008DD070008DD070008B0
:1000A000DD070008DD070008DD070008DD070008A0
:1000B000DD070008DD070008DD070008DD07000890
:1000C000DD070008DD070008DD070008DD07000880
:1000D000DD070008DD070008DD070008DD07000870
:1000E000DD070008DD070008DD070008000000004C
:1000F0000000000000000000000000000000000000
:0C01000000000000000000005FF808F1A3
:10010C0010B5054C237833B9044B13B10448AFF345
:10011C0000800123237010BD0400002000000000AB
:10012C004C08000808B5034B1BB103490348AFF357
:10013C00008008BD00000000080000204C080008EA
:10014C0080B485B000AF78600023FB6002E0FB68F0
:10015C000133FB607B684FF47A6202FB03F3FA68AD
:10016C009A42F4D300BF00BF1437BD4680BC704721
:10017C0080B400AF1B4B9B691A4A43F0090393618F
:10018C00184BDB69174A43F40013D361164B1B68F9
:10019C00154A23F07F431360134B1B68124A43F03C
:1001AC006E431360114B1B68104A43F400431360F9
:1001BC000E4B1B680D4A23F4004313600B4B0822B3
:1001CC005A600A4B2822DA61084B09221A62074B43
:1001DC001B68064A43F00103136000BFBD4680BC98
:1001EC00704700BF00100240000C0140005400405A
:1001FC0080B485B000AF03460A46FB711346BB7151
:10020C001E4B1B681D4A43F48073136000BF1B4BCD
:10021C005B6903F00103002BF9D0184B78221A61AB
:10022C0000BF164B5B6903F00203002BF9D0134B94
:10023C005B69DAB2114B9B69DBB21343FB730F4A58
:10024C00FB79136100BF0D4B5B6903F00403002BBA
:10025C00F9D00A4ABB79136100BF084B5B6903F004
:10026C000403002BF9D0054B1B68044A43F40073BC
:10027C00136000BF1437BD4680BC7047005400406B
:10028C0080B500AF6420FFF75BFFAE210020FFF7C5
:10029C00AFFF20210020FFF7ABFF02210020FFF76A
:1002AC00A7FFB0210020FFF7A3FFC8210020FFF714
:1002BC009FFF00210020FFF79BFF10210020FFF77C
:1002CC0097FF40210020FFF793FF81210020FFF7CB
:1002DC008FFFFF210020FFF78BFFA1210020FFF7EC
:1002EC0087FFA6210020FFF783FFA8210020FFF73E
:1002FC007FFF1F210020FFF77BFFD3210020FFF79A
:10030C0077FF00210020FFF773FFD5210020FFF7B6
:10031C006FFFF0210020FFF76BFFD9210020FFF7C2
:10032C0067FF22210020FFF763FFDA210020FFF78F
:10033C005FFF02210020FFF75BFFDB210020FFF7AE
:10034C0057FF20210020FFF753FF8D210020FFF7DE
:10035C004FFF14210020FFF74BFFAF210020FFF7C8
:10036C0047FF00BF80BD80B582B000AF03460A4690
:10037C00FB711346BB71FB79503BDBB21946002075
:10038C00FFF736FFBB7903F00F03DBB219460020F1
:10039C00FFF72EFFBB791B09DBB243F01003DBB276
:1003AC0019460020FFF724FF00BF0837BD4680BD6B
:1003BC0080B584B000AF0346FB710023FB600FE0F7
:1003CC00FA790D4913469B001344CA18FB68134471
:1003DC001B7819464020FFF70BFFFB680133FB60CD
:1003EC00FB68042BECDD00214020FFF701FF00BF70
:1003FC001037BD4680BD00BF6408000880B584B0CE
:10040C0000AF78607B682F4A82FB03129211DB17D6
:10041C00D21A2D4B83FB02139910D317C91A0B4612
:10042C009B000B445B00D11ACBB23B727B68274A12
:10043C0082FB03125211DB17D21A234B83FB0213DC
:10044C009910D317C91A0B469B000B445B00D11AA9
:10045C00CBB27B727B681C4A82FB03129210DB17B7
:10046C00D21A194B83FB02139910D317C91A0B46D6
:10047C009B000B445B00D11ACBB2BB727A68124B57
:10048C0083FB02139910D317C91A0B469B000B441C
:10049C005B00D11ACBB2FB720023FB600AE007F1C0
:1004AC000802FB6813441B781846FFF781FFFB68B2
:1004BC000133FB60FB68032BF1DD00BF00BF10377D
:1004CC00BD4680BDD34D6210676666661F85EB51D5
:1004DC0080B582B000AF20210020FFF789FE0021FB
:1004EC000020FFF785FE21210020FFF781FE00216F
:1004FC000020FFF77DFE7F210020FFF779FE2221EF
:10050C000020FFF775FE00210020FFF771FE03218C
:10051C000020FFF76DFE00237B6006E000214020E9
:10052C00FFF766FE7B6801337B607B68B3F5007F69
:10053C00F4DB00BF00BF0837BD4680BD80B500AFFF
:10054C001B4B9B691A4A43F401739361194B1B684B
:10055C00184A23F00F031360154B5B68144A43F4DD
:10056C0000435360144B9B68134A43F001039360A0
:10057C000220FFF7E5FD104B9B680F4A43F0080380
:10058C00936000BF0C4B9B6803F00803002BF9D160
:10059C00094B9B68084A43F00403936000BF064B69
:1005AC009B6803F00403002BF9D100BF00BF80BD92
:1005BC0000100240000801400024014080B400AF4C
:1005CC000B4B00225A630A4B9B68094A43F0010308
:1005DC00936000BF064B1B6803F00203002BF9D09D
:1005EC00034BDB6C9BB21846BD4680BC704700BF0A
:1005FC000024014080B400AF204B9B691F4A43F498
:10060C00006393611D4B9B691C4A43F00403936187
:10061C001B4B5B681A4A23F00F035360184B5B6843
:10062C00174A43F00B035360164B07229A62154B83
:10063C0040F6FF72DA62134B9B69124A43F0600377
:10064C009361104B9B690F4A43F0080393610D4B68
:10065C001B6A0C4A43F0010313620A4B5B6C094A98
:10066C0043F400435364074B1B68064A43F00103F1
:10067C00136000BFBD4680BC704700BF0010024035
:10068C0000080140002C014080B584B000AFFFF79A
:10069C006FFDFFF7F5FDFFF71BFFFFF74FFFFFF7B0
:1006AC00A9FF00210020FFF75EFE0B20FFF780FE64
:1006BC000D20FFF77DFE0023BB60FFF77FFF034695
:1006CC00BB60174ABB6853631E210020FFF74BFE2B
:1006DC00B868FFF793FEBB68002B00DA1F335B1181
:1006EC007B6000210220FFF73EFE0023FB600FE041
:1006FC00FA687B689A4204DAFF214020FFF778FD04
:10070C0003E000214020FFF773FDFB680133FB6021
:10071C00FB687F2BECDD3220FFF712FDCDE700BF2D
:10072C00002C014080B400AF00BFFDE780B400AFE7
:10073C0000BFFDE780B400AF00BFFDE780B400AFA1
:10074C0000BFFDE780B400AF00BFFDE780B400AF91
:10075C0000BFBD4680BC704780B400AF00BFBD4633
:10076C0080BC704780B400AF00BFBD4680BC7047F2
:10077C0080B500AF00F02EF800BF80BD80B400AF94
:10078C0000BFBD4680BC7047FFF7F8FF0B480C4913
:10079C000C4A002302E0D458C4500433C4188C42D1
:1007AC00F9D3094A094C002301E013600432A24238
:1007BC00FBD300F021F8FFF767FF70470000002023
:1007CC0004000020B80800080400002024000020C9
:1007DC00FEE7000080B400AF054B1B781A46054BB2
:1007EC001B681344034A136000BFBD4680BC7047AE
:1007FC00000000202000002070B500260C4D0D4C90
:10080C00641BA410A64209D100F01AF800260A4D68
:10081C000A4C641BA410A64205D170BD55F8043BCC
:10082C0098470136EEE755F8043B98470136F2E756
:10083C00B0080008B0080008B0080008B4080008A8
:10084C00F8B500BFF8BC08BC9E467047F8B500BFB1
:08085C00F8BC08BC9E46704781
:100864003E5149453E00427F400042615149462184
:1008740041454B311814127F1027454545393C4AF0
:100884004949300171090503364949493606494940
:10089400291E7C1211127C7F090909063E4141413F
:0C08A400220036360000000000000000BA
:0408B000310100080A
:0408B4000D0100082A
:0408B800010000003B
:040000050800079553
:00000001FF
